:020000040800F2
:1000000038050020A9010008E5170008D1150008EF
:10001000E117000891020008091B00080000000019
:10002000000000000000000000000000511900085E
:100030009502000800000000E917000855190008A3
:10004000C3010008C3010008C3010008C301000880
:10005000C3010008C3010008C3010008C301000870
:10006000C3010008C3010008C3010008C301000860
:10007000C3010008C3010008C3010008C301000850
:10008000C3010008C3010008C3010008000000000C
:10009000000000000000000000000000C301000894
:1000A000C3010008C3010008C3010008C301000820
:1000B000C3010008C3010008C3010008C301000810
:1000C000C3010008C3010008C3010008C301000800
:1000D000C3010008C3010008C301000800000000BC
:1000E000C3010008C3010008C301000800000000AC
:1000F000000000000000000000000000C301000834
:1001000000000000C3010008C3010008C30100088B
:1001100000000000000000000000000000000000DF
:10012000C3010008C3010008C3010008C30100089F
:10013000C3010008000000000000000000000000F3
:10014000000000000000000000000000C3010008E3
:10015000C3010008C3010008C3010008C30100086F
:10016000C3010008C30100080000000000000000F7
:10017000000000000000000000000000000000007F
:1001800000000000C30100080000000000000000A3
:10019000C3010008DFF80CD000F068F80048004701
:1001A0002D1B0008380500200648804706480047F8
:1001B000FEE7FEE7FEE7FEE7FEE7FEE7FEE7FEE717
:1001C000FEE7FEE7051A0008950100082DE9F05F3B
:1001D0000546002092469B468846064681464024B6
:1001E0001BE0284641464746224600F02FF853467A
:1001F0005A46C01A914110D311461846224600F0C3
:1002000016F82D1A67EB01084F46224601200021FF
:1002100000F00DF817EB00094E41201EA4F1010477
:10022000DFDC484631462A464346BDE8F09F202A97
:1002300004DB203A00FA02F1002070479140C2F13D
:10024000200320FA03F3194390407047202A04DB6F
:10025000203A21FA02F00021704721FA02F3D0403F
:10026000C2F120029140084319467047064C074DE1
:1002700006E0E06840F0010394E807009847103476
:10028000AC42F6D3FFF78AFFB07D0008D07D0008AE
:10029000FEE70000704700002DE9F04140F2004405
:1002A000C4F2020420464FF48051002200F056FCB4
:1002B00020460421002200F051FC202001F096FA93
:1002C00020464FF48051012200F048FC20460421D2
:1002D000012200F043FC40F20408C2F20008A8F139
:1002E0000107382617F8015F20464FF4805100229D
:1002F00000F034FC20460421012200F02FFC2846A7
:1003000001F074FA20464FF48051012200F026FCDF
:10031000013EE7D120464FF48051002200F01EFC40
:1003200020460421002200F019FC222001F05EFA90
:1003300020464FF48051012200F010FC2046042199
:10034000012200F00BFC08F13706382716F8015F90
:1003500020464FF48051002200F000FC204604218A
:10036000012200F0FBFB284601F040FA20464FF442
:100370008051012200F0F2FB013FE7D120464FF40B
:100380008051002200F0EAFB20460421002200F008
:10039000E5FB232001F02AFA20464FF48051012288
:1003A00000F0DCFB20460421012200F0D7FB40F2E4
:1003B0007C08C2F20008A8F10107382617F8015F8F
:1003C00020464FF48051002200F0C8FB2046042153
:1003D000012200F0C3FB284601F008FA20464FF442
:1003E0008051012200F0BAFB013EE7D120464FF4D4
:1003F0008051002200F0B2FB20460421002200F0D0
:10040000ADFB242001F0F2F920464FF48051012287
:1004100000F0A4FB20460421012200F09FFB08F11C
:100420003706382716F8015F20464FF48051002226
:1004300000F094FB20460421012200F08FFB2846A7
:1004400001F0D4F920464FF48051012200F086FBE0
:10045000013FE7D1BDE8F08110B540F20044C4F29D
:10046000020420464FF48041012200F077FB0A206D
:1004700000F08CFA20464FF48041002200F06EFB21
:100480000A2000F083FA20464FF48041012200F058
:1004900065FB0A20BDE8104000F078BAB0B540F224
:1004A0000045C4F20205044628464FF4805100225C
:1004B00000F054FB28460421002200F04FFB2046A8
:1004C00001F094F928464FF48051012200F046FBD8
:1004D000284604210122BDE8B04000F03FBB0000E7
:1004E00010B540F20044C4F2020420464FF480519B
:1004F000002200F033FB20460421002200F02EFBF6
:10050000002001F073F920464FF48051012200F0E1
:1005100025FB20460421012200F020FB20464FF459
:100520008051002200F01AFB20460421012200F035
:1005300015FB0F2001F05AF920464FF4805101229B
:1005400000F00CFB20464FF48051002200F006FB27
:1005500020460421012200F001FB8D2001F046F924
:1005600020464FF48051012200F0F8FA20464FF463
:100570008051002200F0F2FA20460421002200F00F
:10058000EDFA012001F032F920464FF480510122AA
:1005900000F0E4FA20460421012200F0DFFA2046B0
:1005A0004FF48051002200F0D9FA204604210122A4
:1005B00000F0D4FA032001F019F920464FF48051DD
:1005C000012200F0CBFA20464FF48051002200F0C7
:1005D000C5FA20460421012200F0C0FA102001F0E3
:1005E00005F920464FF48051012200F0B7FA204669
:1005F0004FF48051002200F0B1FA2046042101227C
:1006000000F0ACFA3F2001F0F1F820464FF48051A1
:10061000012200F0A3FA20464FF48051002200F09E
:100620009DFA20460421012200F098FA3F2001F0B3
:10063000DDF820464FF48051012200F08FFA204669
:100640004FF48051002200F089FA20460421012253
:1006500000F084FA0D2001F0C9F820464FF48051D3
:10066000012200F07BFA20464FF48051002200F076
:1006700075FA20460421002200F070FA032001F0F0
:10068000B5F820464FF48051012200F067FA204669
:100690000421012200F062FA20464FF4805100222A
:1006A00000F05CFA20460421012200F057FA0020F5
:1006B00001F09CF820464FF48051012200F04EFAE0
:1006C00020464FF48051002200F048FA20460421D1
:1006D000002200F043FA062001F088F820464FF48B
:1006E0008051012200F03AFA20460421012200F054
:1006F00035FA20464FF48051002200F02FFA2046B0
:100700000421012200F02AFA172001F06FF8204698
:100710004FF48051012200F021FA20464FF480511D
:10072000002200F01BFA20460421012200F016FAF4
:10073000172001F05BF820464FF48051012200F0B1
:100740000DFA20464FF48051002200F007FA2046AF
:100750000421012200F002FA1E2001F047F8204691
:100760004FF48051012200F0F9F920464FF48051F6
:10077000002200F0F3F920460421002200F0EEF9F7
:10078000302001F033F820464FF48051012200F070
:10079000E5F920460421012200F0E0F920464FF45B
:1007A0008051002200F0DAF920460421012200F0F5
:1007B000D5F9092001F01AF820464FF480510122A2
:1007C00000F0CCF920464FF48051002200F0C6F929
:1007D00020460421002200F0C1F9502001F006F863
:1007E00020464FF48051012200F0B8F92046042140
:1007F000012200F0B3F920464FF48051002200F0AE
:10080000ADF920460421012200F0A8F9572000F09C
:10081000EDFF20464FF48051012200F09FF9204661
:100820004FF48051002200F099F920460421002263
:1008300000F094F9612000F0D9FF20464FF4805178
:10084000012200F08BF920460421012200F086F9F4
:1008500020464FF48051002200F080F92046042108
:10086000012200F07BF9F02000F0C0FF20464FF499
:100870008051012200F072F920464FF4805100228D
:1008800000F06CF920460421012200F067F90120F4
:1008900000F0ACFF20464FF48051012200F05EF9D9
:1008A00020464FF48051002200F058F920460421E0
:1008B000012200F053F9A02000F098FF20464FF4E9
:1008C0008051012200F04AF920464FF48051002265
:1008D00000F044F920460421002200F03FF9822074
:1008E00000F084FF20464FF48051012200F036F9D9
:1008F00020460421012200F031F920464FF48051B6
:10090000002200F02BF920460421012200F026F9F4
:100910001A2000F06BFF20464FF48051012200F0B6
:100920001DF920464FF48051002200F017F92046AF
:100930000421002200F012F9E32000F057FF2046C6
:100940004FF48051012200F009F9204604210122D0
:1009500000F004F920464FF48051002200F0FEF828
:1009600020460421012200F0F9F8002000F03EFFAB
:1009700020464FF480510122BDE8104000F0EEB84F
:10098000EFF3108072B600BFFEE70000B0B504467A
:1009900000F0EAF8054640F27400C2F20000007868
:1009A000611C18BF044400BF00F0DEF8401BA042E9
:1009B000FAD3B0BD2DE9F04F82B000F13E4241F2D2
:1009C000000502F1FF77C4F20205072243F6004E4C
:1009D0004FEAB726A84208BF0422C4F2010E042E33
:1009E00038BF4FEAB7220125002600274FF0000844
:1009F000009208E008F101080437B8F1100F06F181
:100A0000020600F0A7800C6805FA08F914EA090F3D
:100A1000F0D0D1F804B003220BF0030CACF10104C8
:100A2000B240012C6FEA020A10D88268CC6802EA50
:100A30000A02B440224382604268CBF3001422EAE7
:100A4000090204FA08F42243426005E0BCF1030FF6
:100A500002D14FF0030C20E0C2688C6802EA0A025F
:100A6000B4402243BCF1020FC26016D16FF0030202
:100A700002EA58020244D2F820C007F01C050F23F6
:100A80000C69AB402CEA030304FA05F52B4313620F
:100A9000D1F804B001250BF0030C02680CFA06F340
:100AA00002EA0A021A431BF4403F0260A2D000226D
:100AB00043F644030192C4F202031A684FF6084C4D
:100AC00042F480421A601A68CFF6FF7C02F480423A
:100AD0000192019A28F00302724452F80C3007F098
:100AE0000C050F24AC40A343009C04FA05F52B43EE
:100AF00042F80C30DEF808204B6842EA090543F65C
:100B00000C4CDC0258BF22EA0905CEF80850C4F2AA
:100B1000010CDCF800209C0242EA090558BF22EAD9
:100B20000905CCF80050DEF804209C0342EA0905D0
:100B300058BF22EA0905CEF80450DEF80020DB0396
:100B400042EA090558BF22EA0905CEF800500125FE
:100B500050E700BF02B0BDE8F08F0000002A08BFD8
:100B6000090481617047000040F23410C2F20000B5
:100B70000068704740F2740040F23411C2F2000085
:100B8000C2F2000100780A68104408607047000053
:100B900080B543F60040C4F20200016841F40071E0
:100BA0000160016841F480610160016841F4807175
:100BB0000160032000F074F80F2000F005F800F049
:100BC00027F8002080BD000070B540F27406C2F224
:100BD000000640F2EC013278C2F200014FF47A7361
:100BE0000968B3FBF2F20446B1FBF2F1084600F0EB
:100BF0002FFB0F2C4FF0010508D838B94FF0FF300C
:100C000021460022002500F01FF87460284670BDC0
:100C100082B0002043F640010190C4F202014A680C
:100C200042F480424A604A6802F480420192019A8A
:100C30000090086840F080500860086800F080501C
:100C40000090009802B0704710B54EF60C5CCEF2E2
:100C5000000CDCF80030C3F3022E8EF00704042CE5
:100C600028BF0424BEF103034FF0FF3E0EFA04F444
:100C700038BF0023A14399400EFA03F39A4311436E
:100C800000F00F0200F160430901043A03F56443E8
:100C90006244002848BF02F10C03197010BD000027
:100CA0004EF60C51CEF200010A684FF6FF031A40CF
:100CB00060F30A2242F0806040F0FD7008607047E7
:100CC0002DE9F041002800F08B8043F60808C4F2BB
:100CD00002080446D8F8F8030D4600F007008842E1
:100CE00007D288F8F853D8F8F80300F00700A842B4
:100CF00076D12068810717D5410705D5D8F80010AF
:100D000041F4E051C8F80010010705D5D8F80010EB
:100D100041F46041C8F80010D8F80010A26821F032
:100D2000F0011143C8F80010C0073FD1D8F8F8030C
:100D300000F00700A84207D988F8F853D8F8F8035C
:100D400000F00700A8424BD12068410707D5D8F82A
:100D50000010E26821F4E0511143C8F800100007C8
:100D600008D5D8F80000216920F4604040EAC100AD
:100D7000C8F8000000F07CF8D8F8001041F61842DE
:100D8000C1F30311C0F60002515C40F2EC0220FAFC
:100D900001F140F27800C2F200000068C2F20002E5
:100DA0001160FFF711FF0020BDE8F0816068811E2F
:100DB000022907D258F8081C89015CBF0120BDE850
:100DC000F08111E0012807D158F8081C89035CBFA5
:100DD0000120BDE8F08107E058F8081C890703D41A
:100DE0000120BDE8F08100BFD8F8001021F0030118
:100DF0000843C8F80000FFF7B7FE064641F28837FF
:100E0000D8F80000616800F00C00B0EB810F8DD0C5
:100E1000FFF7AAFE801BB842F2D90320BDE8F0819B
:100E200040F2EC0043F60801C2F20000C4F20201F5
:100E30000068096841F62842C1F38221C0F6000229
:100E4000515CC8407047000040F2EC0043F60801D6
:100E5000C2F20000C4F202010068096841F62842AB
:100E6000C1F34231C0F60002515CC8407047000037
:100E700010B543F60404C4F20204606800F00C01EB
:100E800042F200400829C0F2F40007D0042918BF3C
:100E900010BD41F20020C0F27A0010BD216801F0BF
:100EA0003F02216823684902C3F3881106D4A1FBDD
:100EB00000010023FFF78AF907E000BF41F200209C
:100EC000C0F27A004843B0FBF2F021680222C1F37D
:100ED000014102EB4101B0FBF1F010BD2DE9F04101
:100EE00082B0002868D00446007843F60006C007A8
:100EF000C4F202060BD0B06800F00C00042840F0E9
:100F00009F803068800302D56068002854D0207824
:100F100080071AD5B06810F00C0F09D0B06800F047
:100F20000C00082840F0A6807068400200F1A28002
:100F30003068800702D5E06801283DD1306821691A
:100F400020F0F80040EAC10030602078000737D474
:100F5000207840074CD4A56955B3B06800F00C0068
:100F6000082840F0BB80012D26D07068E16900F4AC
:100F700080028A4220D1216A00F03F028A421BD1BE
:100F800047F6C071626A0140B1EB821F14D1A16AB9
:100F90004FF6FF73C903994300F44032A1F5803145
:100FA0008A4209D1E16A00F07060B0EB016F03D1B1
:100FB000002002B0BDE8F081012002B0BDE8F08160
:100FC0006069002840F20000C4F2472076D0012179
:100FD000C0F8801EFFF7C8FD054600BF706F800790
:100FE000B6D4FFF7C1FD401B0228F7D9DDE000BFF2
:100FF000306C10F080580AD100200190306C40F025
:1010000080503064306C00F080500190019847F2BD
:101010000007C4F200073868C00541D4386840F4BE
:1010200080703860FFF7A0FD054600BF3868C00536
:1010300036D4FFF799FD401B0228F7D9B5E000BF71
:10104000B06800F00C00082803D1706840023FF53A
:1010500058AF6068B0F5803F07D0B0F5A02F40F0E2
:101060008D80306840F480203060306840F48030FB
:1010700030608DE0E068002852D00020C4F24720A4
:1010800001210160FFF770FD054600BF3068800751
:101090003FF554AFFFF768FD401B0228F6D984E006
:1010A000A068012805D005284ED1306F40F004001B
:1010B0003067306F40F0010030674FE00021C0F82A
:1010C000801EFFF751FD0546706F80077FF540AF2A
:1010D000FFF74AFD401B0228F6D966E00027C4F25C
:1010E000472700203866FFF73FFD022D05460BD14C
:1010F000306880015ED5FFF737FD401B02284FF0B6
:101100000300F5D955E700BF306880017FF550AF87
:10111000FFF72AFD401B02284FF00300F4D948E7EF
:101120000020C4F2472000210160FFF71DFD0546A5
:10113000306880077FF509AFFFF716FD401B0228D6
:101140004FF00300F4D934E7316F002821F001019A
:101150003167316F21F0040131674DD0FFF704FD95
:10116000054641F2883700BF306F800756D4FFF73D
:10117000FBFC401BB842F7D917E000BF31680028DC
:1011800021F480313160316821F4802131604FD009
:10119000FFF7EAFC054600BF306880033FF5B7AEB5
:1011A000FFF7E2FC401B6428F6D9032002B0BDE83B
:1011B000F08100BF04F11C052FCD084340EA8210E6
:1011C000D9034FF6FF729143A1F5803140EA0560E3
:1011D0000843706001203866FFF7C6FC044600BF74
:1011E000306880013FF5E4AEFFF7BEFC001B02282B
:1011F0004FF00300F4D9DCE6FFF7B6FC054641F2F8
:10120000883700BF306F800708D5FFF7ADFC401B63
:10121000B8424FF00300F5D9CBE600BFB8F1000F9C
:101220007FF499AE306C20F08050306493E600BFBC
:10123000FFF79AFC054600BF306880037FF567AE74
:10124000FFF792FC401B64284FF00300F4D9B0E68E
:10125000411E0020B0EB116F1CBF012070474EF201
:101260001002CEF2000251604EF62351CEF2000180
:10127000F0230B700721906011607047002804BFB5
:101280000120704710B5044690F83D0028B90020B1
:1012900084F83C00204600F021F8242084F83D002A
:1012A0002068C16821F40051C160204600F0B4FB01
:1012B0002068016921F490410161416921F02A010E
:1012C0004161C16841F40051C160002020212064C7
:1012D00084F83D1084F83E1010BD000080B586B043
:1012E000016844F20040C4F20000814202D006B01E
:1012F00080BD00BF002143F630020191C4F202021A
:10130000136900F5DE3043F400331361136903F40D
:1013100000330193019B0191136843F001031360B3
:10132000126802F001020192019A0C22019202223B
:10133000CDE90221032104910721059101A9FFF7BD
:1013400039FB06B080BD00002DE9F04381B00446B2
:1013500090F83D0020280DD10F4600294FF00100E4
:1013600000F0DD801646002A00F0D98094F83C0099
:10137000012803D1022001B0BDE8F083012084F8E8
:101380003C000020206421201D4684F83D00FFF72A
:10139000EBFBA684E684A1680646B1F5805F03D125
:1013A0002069002800F01081B8460027002084F84A
:1013B0003C00E18C2068002900F0908005F10109D3
:1013C0000DE000BFB8F1000F28D018F8011B4160F4
:1013D000E18C0139E184E18C002900F07F80016813
:1013E0000906EFD4B9F1000F0AD0FDB1FFF7BCFB3D
:1013F000801BA8421AD8206801680906F6D5E1E7E3
:1014000001680906DED4016809065CBF01685FEA6D
:101410000161D7D401680906F2D5D3E737F8021B7A
:101420004FF000086FF35F21D1E700BF206850E85C
:10143000030F216820F4D07041E80302BAB320689A
:1014400050E8030F216820F4D07041E8030272B322
:10145000206850E8030F216820F4D07041E80302AF
:101460002AB3206850E8030F216820F4D07041E8C7
:101470000302002ADAD11AE0206850E8050F21683B
:1014800020F0010041E80502DAB1206850E8050FBC
:10149000216820F0010041E8050292B1206850E87F
:1014A000050F216820F0010041E805024AB12068DB
:1014B00050E8050F216820F0010041E80502002AEC
:1014C000DAD1202084F83D0084F83E00002084F822
:1014D0003C00032001B0BDE8F08300BF016849066D
:1014E00019D4FDB1691C0DD10168490613D40168F6
:1014F00049065CBF01685FEA41610CD40168490696
:10150000F2D508E0FFF730FB801BA8420AD820681C
:1015100000684006F6D5202084F83D00002001B088
:10152000BDE8F083206850E8030F216820F4D070F4
:1015300041E80302E2B3206850E8030F216820F479
:10154000D07041E803029AB3206850E8030F216885
:1015500020F4D07041E8030252B3206850E8030F32
:10156000216820F4D07041E80302002ADAD11FE09C
:10157000206850E8050F216820F0010041E80502CD
:10158000002A9ED0206850E8050F216820F0010055
:1015900041E80502002A3FF494AF206850E8050FA7
:1015A000216820F0010041E80502002A3FF489AFDC
:1015B000206850E8050F216820F0010041E805028D
:1015C000002AD5D17DE700BF4FF00008EEE600000D
:1015D000FEE70000F0B581B040F20044C4F202041E
:1015E00020464FF480510022FFF7B8FA204604212C
:1015F0000022FFF7B3FA102000F0F8F820464FF46D
:1016000080510122FFF7AAFA204604210122FFF7A8
:10161000A5FA41F63040C0F60000461E4FF443578D
:1016200016F8015F20464FF480510022FFF796FA2A
:10163000204604210122FFF791FA284600F0D6F84F
:1016400020464FF480510122FFF788FA013FE7D18D
:1016500020464FF480510022FFF780FA20460421F3
:101660000022FFF77BFA132000F0C0F820464FF469
:1016700080510122FFF772FA204604210122FFF770
:101680006DFA44F6F040C0F60000461E4FF4435792
:1016900016F8015F20464FF480510022FFF75EFAF2
:1016A000204604210122FFF759FA284600F09EF84F
:1016B00020464FF480510122FFF750FA013FE7D155
:1016C00001B0F0BD2DE9F04F87B0002743F63000A0
:1016D00006970197C4F202000168002641F08001DC
:1016E00001600168C4F2020601F0800101910199D4
:1016F00001970168002241F00101016001684FF487
:10170000907801F00101019101990197016841F080
:1017100004010160016801F0040101910199019740
:10172000016841F00201016000684FF4907100F01F
:101730000200019001983046FFF710FA06F50065A7
:101740002846102100224FF01009FFF707FA06F58E
:101750008064204645F20601002245F2060AFFF7A2
:10176000FDF9CDF808800DF108084FF0010B304667
:101770004146CDE903B70597FFF71CF928464146D6
:10178000CDE9029BCDE90477FFF714F920464146E5
:10179000CDE902ABCDE90477FFF70CF907B0BDE85E
:1017A000F08F000080B540F2F00044F20041C2F238
:1017B0000000C4F2000100234FF00C0C4FF4E132A2
:1017C00080E80E00C0E90333C0E905C3C361FFF739
:1017D00055FD002808BF80BDBDE88040FFF7D0B8A8
:1017E000FEE70000FEE700007047000070B540F221
:1017F0000044C4F202040546204602210022FFF7FD
:10180000ADF904F58066EA0930461021FFF7A6F924
:10181000204602210122FFF7A1F9204602210022E1
:10182000FFF79CF9204602210022FFF797F9C5F344
:10183000801230461021FFF791F920460221012243
:10184000FFF78CF9204602210022FFF787F9204696
:1018500002210022FFF782F9C5F340123046102121
:10186000FFF77CF9204602210122FFF777F9204695
:1018700002210022FFF772F9204602210022FFF721
:101880006DF9C5F3001230461021FFF767F92046C5
:1018900002210122FFF762F9204602210022FFF710
:1018A0005DF9204602210022FFF758F9C5F3C00276
:1018B00030461021FFF752F9204602210122FFF79E
:1018C0004DF9204602210022FFF748F92046022167
:1018D0000022FFF743F9C5F3800230461021FFF7DD
:1018E0003DF9204602210122FFF738F92046022166
:1018F0000022FFF733F9204602210022FFF72EF9DC
:10190000C5F3400230461021FFF728F92046022196
:101910000122FFF723F9204602210022FFF71EF9DA
:10192000204602210022FFF719F905F00102304696
:101930001021FFF713F9204602210122FFF70EF9CB
:10194000204602210022BDE87040FFF707B90000E1
:1019500070470000FFF70EB9B0B592B0002443F60F
:101960004000CDE90A44CDE908440594CDE903449B
:10197000CDE901440094C4F202000168022541F05F
:1019800080510160006800F080500090009847F29C
:1019900000000094C4F20000016865F38F3101601B
:1019A0000068542100F44040009000980120069007
:1019B0004FF4803007904FF480000D9004200E907B
:1019C000119006A80C95CDE90F15FFF787FA28B1FD
:1019D000EFF3108072B600BFFEE700BF0F20CDE925
:1019E00001054FF48050CDE9040401A802210394BD
:1019F000FFF766F920B1EFF3108072B6FEE700BF83
:101A000012B0B0BD4EF68850CEF20000016841F42D
:101A1000700101607047000010B504460068D4E909
:101A200002C22369016921F44051114301616269D5
:101A300043EA0C01E3691143C268194349F20C639C
:101A40009A431143C1604169A26921F4407141F296
:101A50000043114340F48062C4F201039A424161A1
:101A600002D1FFF7F1F901E0FFF7DAF9E169636804
:101A70001922B1F5004FA0FB020123D15A00DB0F60
:101A8000FEF7A4FB48F21F51C5F2EB11A0FB0123A6
:101A90005A094FF69C73C0F6FF7303F1805302FBA3
:101AA0000300322303EBC000A0FB01014FF4F870E8
:101AB00000EA111000EB0210C1F342110844216842
:101AC000886010BD9A009B0FFEF780FB48F21F5103
:101AD000C5F2EB11A0FB01235A094FF69C73C0F627
:101AE000FF7302FB0300322303EB0010A0FB010194
:101AF000F02000EA511000EB0210C1F3431108443A
:101B00002168886010BD0000FEE7000080B582B04B
:101B1000019040F2F000C2F2000001A901224FF64C
:101B2000FF73FFF711FC019802B080BD80B5FFF78D
:101B30002FF8FFF711FFFFF7C5FDFFF733FE17A0E2
:101B400000F058F84FF4FA70FEF720FFFEF784FC1F
:101B5000FEF7C6FCFEF7A0FBFFF73CFD0420FEF7F6
:101B60009DFC10A000F046F84FF4FA70FEF70EFF4F
:101B70001220FEF793FC0FA000F03CF84FF4FA702F
:101B8000FEF704FF0220FEF789FC0EA000F032F8F9
:101B90004FF4FA70FEF7FAFE002080BD54657374AE
:101BA000200D0000504F4E20636F6D706C657465A2
:101BB000200D000044524620636F6D706C657465A3
:101BC000200D0000504F4620636F6D706C6574658A
:101BD000200D000002E008C8121F08C1002AFAD137
:101BE00070477047002001E001C1121F002AFBD19D
:101BF0007047000010B5044601E0FFF787FF14F8B6
:101C0000010B04490028F8D1BDE810400A20FFF775
:101C10007DBF000000000020000000000000000068
:101C20000102030406070809000000000102030482
:101C3000FFFFFFFFFFFFFFFFFFFFFFFFFFFFFFFFB4
:101C4000FFFFFFFFFFFFFFFFFFFFFFFFFFFFFFFFA4
:101C5000FFFFFFFFFFFFFFFFFFFFFFFFFFFFFFFF94
:101C6000FFFFFFFFFFFFFFFFFFFFFFFFFFFFFFFF84
:101C7000FFFFFFFFFFFFFFFFFFFFFFFFFFFFFFFF74
:101C8000FFFFFFFFFFFFFFFFFFFFC01FFFFFFE7F04
:101C9000FFFFF803FFFFFFFFFFFFFFFFFFFFFFFF57
:101CA000FFFFFFFFFFFFFFFFC01FFFFFFC3FFFFF26
:101CB000F803FFFFFFFFFFFFFFFFFFFFFFFFFFFF37
:101CC000FFFFFFFFFFFFC71FFFFFF81FFFFFF8E346
:101CD000FFFFFFFFFFFFFFFFFFFFFFFFFFFFFFFF14
:101CE000FFFFFFFFC71FFFFFF81FFFFFF8E3FFFF26
:101CF000FFFFFFFFFFFFFFFFFFFFFFFFFFFFFFFFF4
:101D0000FFFFC71FFFFFF81FFFFFF8E3FFFFFFFF05
:101D1000FFFFFFFFFFFFFFFFFFFFFFFFFFFFFFFFD3
:101D2000C01FFFFFF81FFFFFF803FFFFFFFFFFFFCC
:101D3000FFFFFFFFFFFFFFFFFFFFFFFFFFFFC01FD2
:101D4000FFFFF00FFFFFF803FFFFFFFFFFFFFFFFA5
:101D5000FFFFFFFFFFFFFFFFFFFFFFFFFFFFFFFF93
:101D6000F00FFFFFFFFFFFFFFFFFFFFFFFFFFFFF82
:101D7000FFFFFFFFFFFFFFFFFFFFFFFFFFFFF00F72
:101D8000FFFFFFFFFFFFFFFFFFFFFFFFFFFFFFFF63
:101D9000FFFFFFFFFFFFFFFFFFFFFFFFF00FFFFF52
:101DA000FFFFFFFFFFFFFFFFFFFFFFFFFFFFFFFF43
:101DB000FFFFFFFFFFFFFFFFFFFFE007FFFFFFFF4A
:101DC000FFFFFFFFFFFFFFFFFFFFFFFFFFFFFFFF23
:101DD000FFFFFFFFFFFFFFFFE007FFFFFFFFFFFF2A
:101DE000FFFFFFFFFFFFFFFFFFFFFFFFFFFFFFFF03
:101DF000FFFFFFFFFFFFE007FFFFFFFFFFFFFFFF0A
:101E0000FFFFFFFFFFFFFFFFFFFFFFFFFFFFFFFFE2
:101E1000FFFFFFFFE007FFFFFFFFFFFFFFFFFFFFE9
:101E2000FFFFFFFFFFFFFFFFFFFFFFFFFFFFFFFFC2
:101E3000FFFFC003FFFFFFFFFFFFFFFFFFFFFFFFED
:101E4000FFFFFFFFFFFFFFFFFFFFFFFFFFFFFFFFA2
:101E5000C183FFFFFFFFFFFFFFFFFFFFFFFFFFFF4C
:101E6000FFFFFFFFFFFFFFFFFFFFFFFFFFFFC1833C
:101E7000FFFFFFFFFFFFFFFFFFFFFFFFFFFFFFFF72
:101E8000FFFFFFFFFFFFFFFFFFFFFFFFC183FFFF1C
:101E9000FFFFFFFFFFFFFFFFFFFFFFFFFFFFFFFF52
:101EA000FFFFFFFFFFFFFFFFFFFF81C1FFFFFFFFFE
:101EB000FFFFFFFFFFFFFFFFFFFFFFFFFFFFFFFF32
:101EC000FFFFFFFFFFFFFFFF83C1FFFFFFFFFFFFDC
:101ED000FFFFFFFFFFFFFFFFFFFFFFFFFFFFFFFF12
:101EE000FFFFFFFFFFFF83C1FFFFFFFFFFFFFFFFBC
:101EF000FFFFFFFFFFFFFFFFFFFFFFFFFFFFFFFFF2
:101F0000FFFFFFFF83C1FFFFFFFFFFFFFFFFFFFF9B
:101F1000FFFFFFFFFFFFFFFFFFFFFFFFFFFFFFFFD1
:101F2000FFFF03E0FFFFFFFFFFFFFFFFFFFFFFFFDC
:101F3000FFFFFFFFFFFFFFFFFFFFFFFFFFFFFFFFB1
:101F400007E0FFFFFFFFFFFFFFFFFFFFFFFFFFFFB8
:101F5000FFFFFFFFFFFFFFFFFFFFFFFFFFFF07E0A8
:101F6000FFFFFFFFFFFFFFFFFFFFFFFFFFFFFFFF81
:101F7000FFFFFFFFFFFFFFFFFFFFFFFF07E0FFFF88
:101F8000FFFFFFFFFFFFFFFFFFFFFFFFFFFFFFFF61
:101F9000FFFFFFFFFFFFFFFFFFFE07F07FFFFFFFD9
:101FA000FFFFFFFFFFFFFFFFFFFFFFFFFFFFFFFF41
:101FB000FFFFFFFFFFFFFFFE0FF07FFFFFFFFFFFB1
:101FC000FFFFFFFFFFFFFFFFFFFFFFFFFFFFFFFF21
:101FD000FFFFFFFFFFFE0FF07FFFFFFFFFFFFFFF91
:101FE000FFFFFFFFFFFFFFFFFFFFFFFFFFFFFFFF01
:101FF000FFFFFFFE0FF07FFFFFFFFFFFFFFFFFFF71
:10200000FFFFFFFFFFFFFFFFFFFFFFFFFFFFFFFFE0
:10201000FFFC0FF83FFFFFFFFFFFFFFFFFFFFFFF8A
:10202000FFFFFFFFFFFFFFFFFFFFFFFFFFFFFFFCC3
:102030001FF83FFFFFFFFFFFFFFFFFFFFFFFFFFF57
:10204000FFFFFFFFFFFFFFFFFFFFFFFFFFFC1FF88A
:102050003FFFFFFFFFFFFFFFFFFFFFFFFFFFFFFF50
:10206000FFFFFFFFFFFFFFFFFFFFFFFC1FF83FFF2A
:10207000FFFFFFFFFFFFFFFFFFFFFFFFFFFFFFFF70
:10208000FFFFFFFFFFFFFFFFFFF81FFC1FFFFFFF2A
:10209000FFFFFFFFFFFFFFFFFFFFFFFFFFFFFFFF50
:1020A000FFFFFFFFE00000003FFC00000007FFFF14
:1020B000FFFFFFFFFFFFFFFFFFFFFFFFFFFFFFFF30
:1020C000FFFFC00000003FFC00000003FFFFFFFF18
:1020D000FFFFFFFFFFFFFFFFFFFFFFFFFFFFFFFF10
:1020E000800000003FFC00000001FFFFFFFFFFFF3A
:1020F000FFFFFFFFFFFFFFFFFFFFFFFFFFFF80006E
:1021000000007FFE00000001FFFFFFFFFFFFFFFF59
:10211000FFFFFFFFFFFFFFFFFFFFFFFFC00000000B
:10212000FFFF00000003FFFFFFFFFFFFFFFFFFFFB8
:10213000FFFFFFFFFFFFFFFFFFFFE03FFFFFFFFF8E
:10214000FFFFFC03FFFFFFFFFFFFFFFFFFFFFFFF9E
:10215000FFFFFFFFFFFFFFFFF01FFFFFFFFFFFFF7E
:10216000F80FFFFFFFFFFFFFFFFFFFFFFFFFFFFF76
:10217000FFFFFFFFFFFFF80FFFFFFFFFFFFFF01F55
:10218000FFFFFFFFFFFFFFFFFFFFFFFFFFFFFFFF5F
:10219000FFFFFFFFFC07FFFFFFFFFFFFE03FFFFF29
:1021A000FFFFFFFFFFFFFFFFFFFFFFFFFFFFFFFF3F
:1021B000FFFFFE03FFFFFFFFFFFFC07FFFFFFFFFEB
:1021C000FFFFFFFFFFFFFFFFFFFFFFFFFFFFFFFF1F
:1021D000FF01FFFFFFFFFFFF80FFFFFFFFFFFFFF8C
:1021E000FFFFFFFFFFFFFFFFFFFFFFFFFFFFFF807E
:1021F000FFFFFFFFFFFF01FFFFFFFFFFFFFFFFFFED
:10220000FFFFFFFFFFFFFFFFFFFFFFFFFFC07FFF9D
:10221000FFFFFFFE03FFFFFFFFFFFFFFFFFFFFFFCB
:10222000FFFFFFFFFFFFFFFFFFFFFFE03FFFFFFF9D
:10223000FFFC07FFFFFFFFFFFFFFFFFFFFFFFFFFA9
:10224000FFFFFFFFFFFFFFFFFFF01FFFFFFFFFF894
:102250000FFFFFFFFFFFFFFFFFFFFFFFFFFFFFFF7E
:10226000FFFFFFFFFFFFFFF80FFFFFFFFFF01FFF64
:10227000FFFFFFFFFFFFFFFFFFFFFFFFFFFFFFFF6E
:10228000FFFFFFFFFFFC07FFFFFFFFE03FFFFFFF38
:10229000FFFFFFFFFFFFFFFFFFFFFFFFFFFFFFFF4E
:1022A000FFFFFFFE03FFFFFFFFC07FFFFFFFFFFFFA
:1022B000FFFFFFFFFFFFFFFFFFFFFFFFFFFFFFFF2E
:1022C000FFFF01FFFFFFFF80FFFFFFFFFFFFFFFF9B
:1022D000FFFFFFFFFFFFFFFFFFFFFFFFFFFFFFFF0E
:1022E00080FFFFFFFF01FFFFFFFFFFFFFFFFFFFF7B
:1022F000FFFFFFFFFFFFFFFFFFFFFFFFFFFFC07FAD
:10230000FFFFFE03FFFFFFFFFFFFFFFFFFFFFFFFDA
:10231000FFFFFFFFFFFFFFFFFFFFFFFFE01FFFFFCC
:10232000FC07FFFFFFFFFFFFFFFFFFFFFFFFFFFFB8
:10233000FFFFFFFFFFFFFFFFFFFFF01FFFFFF80F93
:10234000FFFFFFFFFFFFFFFFFFFFFFFFFFFFFFFF9D
:10235000FFFFFFFFFFFFFFFFF80FFFFFF01FFFFF73
:10236000FFFFFFFFFFFFFFFFFFFFFFFFFFFFFFFF7D
:10237000FFFFFFFFFFFFFC0FFFFFF03FFFFFFFFF2F
:10238000FFFFFFFFFFFFFFFFFFFFFFFFFFFFFFFF5D
:10239000FFFFFFFFFE0FFFFFF03FFFFFFFFFFFFF0D
:1023A000FFFFFFFFFFFFFFFFFFFFFFFFFFFFFFFF3D
:1023B000FFFFFC1FFFFFF83FFFFFFFFFFFFFFFFFD7
:1023C000FFFFFFFFFFFFFFFFFFFFFFFFFFFFFFFF1D
:1023D000FC1FFFFFF83FFFFFFFFFFFFFFFFFFFFFB7
:1023E000FFFFFFFFFFFFFFFFFFFFFFFFFFFFFC1FE0
:1023F000FFFFF83FFFFFFFFFFFFFFFFFFFFFFFFFB4
:10240000FFFFFFFFFFFFFFFFFFFFFFFFFC1FFFFFBF
:10241000F83FFFFFFFFFFFFFFFFFFFFFFFFFFFFF93
:10242000FFFFFFFFFFFFFFFFFFFFF83FFFFFFC1F66
:10243000FFFFFFFFFFFFFFFFFFFFFFFFFFFFFFFFAC
:10244000FFFFFFFFFFFFFFFFF83FFFFFFC1FFFFF46
:10245000FFFFFFFFFFFFFFFFFFFFFFFFFFFFFFFF8C
:10246000FFFFFFFFFFFFF83FFFFFFC1FFFFFFFFF26
:10247000FFFFFFFFFFFFFFFFFFFFFFFFFFFFFFFF6C
:10248000FFFFFFFFF83FFFFFFC1FFFFFFFFFFFFF06
:10249000FFFFFFFFFFFFFFFFFFFFFFFFFFFFFFFF4C
:1024A000FFFFF03FFFFFFE0FFFFFFFFFFFFFFFFFFC
:1024B000FFFFFFFFFFFFFFFFFFFFFFFFFFFFFFFF2C
:1024C000F07FFFFFFE0FFFFFFFFFFFFFFFFFFFFF9C
:1024D000FFFFFFFFFFFFFFFFFFFFFFFFFFFFF07F9B
:1024E000FE7FFE0FFFFFFFFFFFFFFFFFFFFFFFFF6E
:1024F000FFFFFFFFFFFFFFFFFFFFFFFFF07FF81F62
:10250000FE0FFFFFFFFFFFFFFFFFFFFFFFFFFFFFCC
:10251000FFFFFFFFFFFFFFFFFFFFE07FF00FFE0762
:10252000FFFFFFFFFFFFFFFFFFFFFFFFFFFFFFFFBB
:10253000FFFFFFFFFFFFFFFFE0FFE007FF07FFFFD9
:10254000FFFFFFFFFFFFFFFFFFFFFFFFFFFFFFFF9B
:10255000FFFFFFFFFFFFE0FFC003FF07FFFFFFFFDD
:10256000FFFFFFFFFFFFFFFFFFFFFFFFFFFFFFFF7B
:10257000FFFFFFFFE0FF8001FF07FFFFFFFFFFFFFF
:10258000FFFFFFFFFFFFFFFFFFFFFFFFFFFFFFFF5B
:10259000FFFFE0FF0180FF03FFFFFFFFFFFFFFFFE3
:1025A000FFFFFFFFFFFFFFFFFFFFFFFFFFFFFFFF3B
:1025B000C1FE03C07F83FFFFFFFFFFFFFFFFFFFFA1
:1025C000FFFFFFFFFFFFFFFFFFFFFFFFFFFFC1F860
:1025D00007E01F83FFFFFFFFFFFFFFFFFFFFFFFF7E
:1025E000FFFFFFFFFFFFFFFFFFFFFFFFC1F00FF047
:1025F0000F83FFFFFFFFFFFFFFFFFFFFFFFFFFFF57
:10260000FFFFFFFFFFFFFFFFFFFFC1E01FF8078392
:10261000FFFFFFFFFFFFFFFFFFFFFFFFFFFFFFFFCA
:10262000FFFFFFFFFFFFFFFF81C03FFC03C1FFFF74
:10263000FFFFFFFFFFFFFFFFFFFFFFFFFFFFFFFFAA
:10264000FFFFFFFFFFFF8380FFFF01C1FFFFFFFFD1
:10265000FFFFFFFFFFFFFFFFFFFFFFFFFFFFFFFF8A
:10266000FFFFFFFF8301FFFF80C1FFFFFFFFFFFFB1
:10267000FFFFFFFFFFFFFFFFFFFFFFFFFFFFFFFF6A
:10268000FFFF8203FFFFC041FFFFFFFFFFFFFFFFD0
:10269000FFFFFFFFFFFFFFFFFFFFFFFFFFFFFFFF4A
:1026A0000007FFFFE000FFFFFFFFFFFFFFFFFFFF4F
:1026B000FFFFFFFFFFFFFFFFFFFFFFFFFFFF000F19
:1026C000FFFFF000FFFFFFFFFFFFFFFFFFFFFFFF28
:1026D000FFFFFFFFFFFFFFFFFFFFFFFF001FFFFFE9
:1026E000F800FFFFFFFFFFFFFFFFFFFFFFFFFFFF00
:1026F000FFFFFFFFFFFFFFFFFFFF003FFFFFFC00AB
:10270000FFFFFFFFFFFFFFFFFFFFFFFFFFFFFFFFD9
:10271000FFFFFFFFFFFFFFFF007FFFFFFE007FFFC8
:10272000FFFFFFFFFFFFFFFFFFFFCFFFFFFF007F68
:10273000FFFFFFFFC01E01FFFFFFFF807FFFFFFFC6
:10274000FFFFFFFFFFFFFFFF87FFFFFF007FFFFF90
:10275000FFFFC01E03FFFFFFFFC07FFFFFFFFFFF64
:10276000FFFFFFFFFFFF03FFFFFF1C7FFFFFFFFFD8
:10277000C71E07FFFFFFFFE07FFFFFFFFFFFFFFF19
:10278000FFFFFFFF03FFFFFF1C7FFFFFFFFFC71ED1
:102790000FFFFFFFFFF07FFFFFFFFFFFFFFFFFFFC8
:1027A000FFFF03FFFFFF1C7FFFFFFFFFC71F1FFF90
:1027B000FFFFFFF8FFFFFFFFFFFFFFFFFFFFFFFF30
:1027C00003FFFFFF007FFFFFFFFFC01FFFFFFFFFB3
:1027D000FFFFFFFFFFFFFFFFFFFFFFFFFFFE01FF08
:1027E000FFFF007FFFFFFFFFC01FFFFFFFFFFFFF97
:1027F000FFFFFFFFFFFFFFFFFFFFFFFE01FFFFFFE8
:10280000FFFFFFFFFFFFFFFFFFFFFFFFFFFFFFFFD8
:10281000FFFFFFFFFFFFFFFFFFFE01FFFFFFFFFFC7
:10282000FFFFFFFFFFFFFFFFFFFFFFFFFFFFFFFFB8
:10283000FFFFFFFFFFFFFFFE01FFFFFFFFFFFFFFA7
:10284000FFFFFFFFFFFFFFFFFFFFFFFFFFFFFFFF98
:10285000FFFFFFFFFFFC00FFFFFFFFFFFFFFFFFF8A
:10286000FFFFFFFFFFFFFFFFFFFFFFFFFFFFFFFF78
:10287000FFFFFFFC00FFFFFFFFFFFFFFFFFFFFFF6A
:10288000FFFFFFFFFFFFFFFFFFFFFFFFFFFFFFFF58
:10289000FFFC00FFFFFFFFFFFFFFFFFFFFFFFFFF4A
:1028A000FFFFFFFFFFFFFFFFFFFFFFFFFFFFFFFC3B
:1028B00000FFFFFFFFFFFFFFFFFFFFFFFFFFFFFF27
:1028C000FFFFFFFFFFFFFFFFFFFFFFFFFFF8007F9E
:1028D000FFFFFFFFFFFFFFFFFFFFFFFFFFFFFFFF08
:1028E000FFFFFFFFFFFFFFFFFFFFFFF8307FFFFF4E
:1028F000FFFFFFFFFFFFFFFFFFFFFFFFFFFFFFFFE8
:10290000FFFFFFFFFFFFFFFFFFF8307FFFFFFFFF2D
:10291000FFFFFFFFFFFFFFFFFFFFFFFFFFFFFFFFC7
:10292000FFFFFFFFFFFFFFF8307FFFFFFFFFFFFF0D
:10293000FFFFFFFFFFFFFFFFFFFFFFFFFFFFFFFFA7
:10294000FFFFFFFFFFF0383FFFFFFFFFFFFFFFFF2D
:10295000FFFFFFFFFFFFFFFFFFFFFFFFFFFFFFFF87
:10296000FFFFFFF0783FFFFFFFFFFFFFFFFFFFFFCD
:10297000FFFFFFFFFFFFFFFFFFFFFFFFFFFFFFFF67
:10298000FFF0783FFFFFFFFFFFFFFFFFFFFFFFFFAD
:10299000FFFFFFFFFFFFFFFFFFFFFFFFFFFFFFF056
:1029A000783FFFFFFFFFFFFFFFFFFFFFFFFFFFFF7E
:1029B000FFFFFFFFFFFFFFFFFFFFFFFFFFE07C1FA9
:1029C000FFFFFFFFFFFFFFFFFFFFFFFFFFFFFFFF17
:1029D000FFFFFFFFFFFFFFFFFFFFFFE0FC1FFFFF09
:1029E000FFFFFFFFFFFFFFFFFFFFFFFFFFFFFFFFF7
:1029F000FFFFFFFFFFFFFFFFFFE0FC1FFFFFFFFFE9
:102A0000FFFFFFFFFFFFFFFFFFFFFFFFFFFFFFFFD6
:102A1000FFFFFFFFFFFFFFE0FC1FFFFFFFFFFFFFC8
:102A2000FFFFFFFFFFFFFFFFFFFFFFFFFFFFFFFFB6
:102A3000FFFFFFFFFFC0FE0FFFFFFFFFFFFFFFFFD6
:102A4000FFFFFFFFFFFFFFFFFFFFFFFFFFFFFFFF96
:102A5000FFFFFFC1FE0FFFFFFFFFFFFFFFFFFFFFB5
:102A6000FFFFFFFFFFFFFFFFFFFFFFFFFFFFFFFF76
:102A7000FFC1FE0FFFFFFFFFFFFFFFFFFFFFFFFF95
:102A8000FFFFFFFFFFFFFFFFFFFFFFFFFFFFFFC194
:102A9000FE0FFFFFFFFFFFFFFFFFFFFFFFFFFFFF37
:102AA000FFFFFFFFFFFFFFFFFFFFFFFFFF81FF07AC
:102AB000FFFFFFFFFFFFFFFFFFFFFFFFFFFFFFFF26
:102AC000FFFFFFFFFFFFFFFFFFFFFF83FF07FFFF8A
:102AD000FFFFFFFFFFFFFFFFFFFFFFFFFFFFFFFF06
:102AE000FFFFFFFFFFFFFFFFFF83FF07FFFFFFFF6A
:102AF000FFFFFFFFFFFFFFFFFFFFFFFFFFFFFFFFE6
:102B0000FFFFFFFFFFFFFF83FF07FFFFFFFFFFFF49
:102B1000FFFFFFFFFFFFFFFFFFFFFFFFFFFFFFFFC5
:102B2000FFFFFFFFFF03FF83FFFFFFFFFFFFFFFF2D
:102B3000FFFFFFFFFFFFFFFFFFFFFFFFFFFFFFFCA8
:102B400000000007FF80000000FFFFFFFFFFFFFF06
:102B5000FFFFFFFFFFFFFFFFFFFFFFFFFFF800008A
:102B60000007FF800000007FFFFFFFFFFFFFFFFF68
:102B7000FFFFFFFFFFFFFFFFFFFFFFF00000000769
:102B8000FF800000003FFFFFFFFFFFFFFFFFFFFF91
:102B9000FFFFFFFFFFFFFFFFFFF00000000FFFC080
:102BA0000000003FFFFFFFFFFFFFFFFFFFFFFFFFF2
:102BB000FFFFFFFFFFFFFFF80000001FFFE0000026
:102BC000007FFFFFFFFFFFFFFFFFFFFFFFFFFFFF94
:102BD000FFFFFFFFFFFC07FFFFFFFFFFFFFF807FFF
:102BE000FFFFFFFFFFFFFFFFFFFFFFFFFFFFFFFFF5
:102BF000FFFFFFFE03FFFFFFFFFFFFFF01FFFFFFE0
:102C0000FFFFFFFFFFFFFFFFFFFFFFFFFFFFFFFFD4
:102C1000FFFF01FFFFFFFFFFFFFE03FFFFFFFFFFBF
:102C2000FFFFFFFFFFFFFFFFFFFFFFFFFFFFFFFFB4
:102C300080FFFFFFFFFFFFFC07FFFFFFFFFFFFFF1E
:102C4000FFFFFFFFFFFFFFFFFFFFFFFFFFFFC07F53
:102C5000FFFFFFFFFFF80FFFFFFFFFFFFFFFFFFF7B
:102C6000FFFFFFFFFFFFFFFFFFFFFFFFE03FFFFF53
:102C7000FFFFFFF01FFFFFFFFFFFFFFFFFFFFFFF53
:102C8000FFFFFFFFFFFFFFFFFFFFF01FFFFFFFFF43
:102C9000FFE03FFFFFFFFFFFFFFFFFFFFFFFFFFF23
:102CA000FFFFFFFFFFFFFFFFF80FFFFFFFFFFFC06A
:102CB0007FFFFFFFFFFFFFFFFFFFFFFFFFFFFFFFA4
:102CC000FFFFFFFFFFFFFC07FFFFFFFFFF80FFFF8E
:102CD000FFFFFFFFFFFFFFFFFFFFFFFFFFFFFFFF04
:102CE000FFFFFFFFFE03FFFFFFFFFF01FFFFFFFFEF
:102CF000FFFFFFFFFFFFFFFFFFFFFFFFFFFFFFFFE4
:102D0000FFFFFF01FFFFFFFFFE03FFFFFFFFFFFFCE
:102D1000FFFFFFFFFFFFFFFFFFFFFFFFFFFFFFFFC3
:102D2000FF80FFFFFFFFFC07FFFFFFFFFFFFFFFF2D
:102D3000FFFFFFFFFFFFFFFFFFFFFFFFFFFFFFC0E2
:102D40007FFFFFFFF80FFFFFFFFFFFFFFFFFFFFF0A
:102D5000FFFFFFFFFFFFFFFFFFFFFFFFFFE03FFF62
:102D6000FFFFF01FFFFFFFFFFFFFFFFFFFFFFFFF62
:102D7000FFFFFFFFFFFFFFFFFFFFFFF01FFFFFFF52
:102D8000E03FFFFFFFFFFFFFFFFFFFFFFFFFFFFF32
:102D9000FFFFFFFFFFFFFFFFFFF80FFFFFFFC07FF9
:102DA000FFFFFFFFFFFFFFFFFFFFFFFFFFFFFFFF33
:102DB000FFFFFFFFFFFFFFFC03FFFFFF80FFFFFFA1
:102DC000FFFFFFFFFFFFFFFFFFFFFFFFFFFFFFFF13
:102DD000FFFFFFFFFFFE03FFFFFF01FFFFFFFFFFFE
:102DE000FFFFFFFFFFFFFFFFFFFFFFFFFFFFFFFFF3
:102DF000FFFFFFFF01FFFFFE03FFFFFFFFFFFFFFDE
:102E0000FFFFFFFFFFFFFFFFFFFFFFFFFFFFFFFFD2
:102E1000FFFF81FFFFFE07FFFFFFFFFFFFFFFFFF39
:102E2000FFFFFFFFFFFFFFFFFFFFFFFFFFFFFFFFB2
:102E3000C1FFFFFE07FFFFFFFFFFFFFFFFFFFFFFD9
:102E4000FFFFFFFFFFFFFFFFFFFFFFFFFFFF83FF0E
:102E5000FFFF07FFFFFFFFFFFFFFFFFFFFFFFFFF7A
:102E6000FFFFFFFFFFFFFFFFFFFFFFFF83FFFFFFEE
:102E700007FFFFFFFFFFFFFFFFFFFFFFFFFFFFFF5A
:102E8000FFFFFFFFFFFFFFFFFFFF83FFFFFF07FFC6
:102E9000FFFFFFFFFFFFFFFFFFFFFFFFFFFFFFFF42
:102EA000FFFFFFFFFFFFFFFF83FFFFFF07FFFFFFA6
:102EB000FFFFFFFFFFFFFFFFFFFFFFFFFFFFFFFF22
:102EC000FFFFFFFFFFFF07FFFFFF83FFFFFFFFFF86
:102ED000FFFFFFFFFFFFFFFFFFFFFFFFFFFFFFFF02
:102EE000FFFFFFFF07FFFFFF83FFFFFFFFFFFFFF66
:102EF000FFFFFFFFFFFFFFFFFFFFFFFFFFFFFFFFE2
:102F0000FFFF07FFFFFF83FFFFFFFFFFFFFFFFFF45
:102F1000FFFFFFFFFFFFFFFFFFFFFFFFFFFFFFFFC1
:102F200007FFFFFF83FFFFFFFFFFFFFFFFFFFFFF25
:102F3000FFFFFFFFFFFFFFFFFFFFFFFFFFFE07FF9A
:102F4000FFFFC1FFFFFFFFFFFFFFFFFFFFFFFFFFCF
:102F5000FFFFFFFFFFFFFFFFFFFFFFFE0FFFFFFF72
:102F6000C1FFFFFFFFFFFFFFFFFFFFFFFFFFFFFFAF
:102F7000FFFFFFFFFFFFFFFFFFFE0FFFCFFFC1FFC0
:102F8000FFFFFFFFFFFFFFFFFFFFFFFFFFFFFFFF51
:102F9000FFFFFFFFFFFFFFFE0FFF03FFC1FFFFFF6C
:102FA000FFFFFFFFFFFFFFFFFFFFFFFFFFFFFFFF31
:102FB000FFFFFFFFFFFC0FFE01FFC0FFFFFFFFFF52
:102FC000FFFFFFFFFFFFFFFFFFFFFFFFFFFFFFFF11
:102FD000FFFFFFFC1FFC00FFE0FFFFFFFFFFFFFF05
:102FE000FFFFFFFFFFFFFFFFFFFFFFFFFFFFFFFFF1
:102FF000FFFC1FF8007FE0FFFFFFFFFFFFFFFFFF69
:10300000FFFFFFFFFFFFFFFFFFFFFFFFFFFFFFFCD3
:103010001FF0003FE0FFFFFFFFFFFFFFFFFFFFFF8D
:10302000FFFFFFFFFFFFFFFFFFFFFFFFFFFC1FE0B2
:10303000301FE07FFFFFFFFFFFFFFFFFFFFFFFFFEE
:10304000FFFFFFFFFFFFFFFFFFFFFFF83FC0780F0D
:10305000F07FFFFFFFFFFFFFFFFFFFFFFFFFFFFF0F
:10306000FFFFFFFFFFFFFFFFFFF83F00FC03F07FC4
:10307000FFFFFFFFFFFFFFFFFFFFFFFFFFFFFFFF60
:10308000FFFFFFFFFFFFFFF83E01FE01F07FFFFFA4
:10309000FFFFFFFFFFFFFFFFFFFFFFFFFFFFFFFF40
:1030A000FFFFFFFFFFF83C03FF00F07FFFFFFFFF84
:1030B000FFFFFFFFFFFFFFFFFFFFFFFFFFFFFFFF20
:1030C000FFFFFFF03807FF80783FFFFFFFFFFFFFA4
:1030D000FFFFFFFFFFFFFFFFFFFFFFFFFFFFFFFF00
:1030E000FFF0701FFFE0383FFFFFFFFFFFFFFFFF14
:1030F000FFFFFFFFFFFFFFFFFFFFFFFFFFFFFFF0EF
:10310000603FFFF0183FFFFFFFFFFFFFFFFFFFFFE4
:10311000FFFFFFFFFFFFFFFFFFFFFFFFFFF0407F0D
:10312000FFF8083FFFFFFFFFFFFFFFFFFFFFFFFF6D
:10313000FFFFFFFFFFFFFFFFFFFFFFE000FFFFFCC0
:10314000001FFFFFFFFFFFFFFFFFFFFFFFFFFFFF6E
:10315000FFFFFFFFFFFFFFFFFFE001FFFFFE001F7C
:10316000FFFFFFFFFFFFFFFFFFFFFFFFFFFFFFFF6F
:10317000FFFFFFFFFFFFFFE003FFFFFF001FFFFF59
:10318000FFFFFFFFFFFFFFFFFFFFFFFFFFFFFFFF4F
:10319000FFFFFFFFFFE007FFFFFF801FFFFFFFFFB5
:1031A000FFFFFFFFFFFFFFFFFFFFFFFFFFFFFFFF2F
:1031B000FFFFFFE00FFFFFFFC00FFFFFFFFFFFFF5D
:1031C000FFFFFFFFFFFFFFFFFFFFFFFFFFFFFFF816
:1031D00003C03FFFFFFFF00F007FFFFFFFFFFFFF78
:1031E000FFFFFFFFFFFFFFFFFFFFFFFFFFF803C031
:1031F0007FFFFFFFF80F007FFFFFFFFFFFFFFFFFD5
:10320000FFFFFFFFFFFFFFFFFFFFFFF8E3C0FFFF30
:10321000FFFFFC0F1C7FFFFFFFFFFFFFFFFFFFFF14
:10322000FFFFFFFFFFFFFFFFFFF8E3C1FFFFFFFF0F
:10323000FE0F1C7FFFFFFFFFFFFFFFFFFFFFFFFFF2
:10324000FFFFFFFFFFFFFFF8E3E3FFFFFFFFFF1FAD
:103250001C7FFFFFFFFFFFFFFFFFFFFFFFFFFFFFE1
:10326000FFFFFFFFFFF803FFFFFFFFFFFFFF007FF0
:10327000FFFFFFFFFFFFFFFFFFFFFFFFFFFFFFFF5E
:10328000FFFFFFF803FFFFFFFFFFFFFF007FFFFFD0
:10329000FFFFFFFFFFFFFFFFFFFFFFFFFFFFFFFF3E
:1032A000FFFFFFFFFFFFFFFFFFFFFFFFFFFFFFFF2E
:1032B000FFFFFFFFFFFFFFFFFFFFFFFFFFFFFFFF1E
:1032C000FFFFFFFFFFFFFFFFFFFFFFFFFFFFFFFF0E
:10383000FFFFFFFFFFFFFFFFFFFFF9FFFFFFE00FAD
:10384000FFFFFFFFFFFFFFFFFFFFFFFFFFFFFFFF88
:10385000FFFFFFFFFFFFFFFFF0FFFFFFE00FFFFF96
:10386000FFFFFFFFFFFFFFFFFFFFFFFFFFFFFFFF68
:10387000FFFFFFFFFFFFE07FFFFFE38FFFFFFFFF83
:10388000FFFFFFFFFFFFFFFFFFFFFFFFFFFFFFFF48
:10389000FFFFFFFFE07FFFFFE38FFFFFFFFFFFFF63
:1038A000FFFFFFFFFFFFFFFFFFFFFFFFFFFFFFFF28
:1038B000FFFFE07FFFFFE38FFFFFFFFFFFFFFFFF43
:1038C000FFFFFFFFFFFFFFFFFFFFFFFFFFFFFFFF08
:1038D000E07FFFFFE00FFFFFFFFFFFFFFFFFFFFFA6
:1038E000FFFFFFFFFFFFFFFFFFFFFFFFFFFFC03FE7
:1038F000FFFFE00FFFFFFFFFFFFFFFFFFFFFFFFFE7
:10390000FFFFFFFFFFFFFFFFFFFFFFFFC03FFFFFC6
:10391000FFFFFFFFFFFFFFFFFFFFFFFFFFFFFFFFB7
:10392000FFFFFFFFFFFFFFFFFFFFC03FFFFFFFFFA6
:10393000FFFFFFFFFFFFFFFFFFFFFFFFFFFFFFFF97
:10394000FFFFFFFFFFFFFFFFC03FFFFFFFFFFFFF86
:10395000FFFFFFFFFFFFFFFFFFFFFFFFFFFFFFFF77
:10396000FFFFFFFFFFFF801FFFFFFFFFFFFFFFFFC6
:10397000FFFFFFFFFFFFFFFFFFFFFFFFFFFFFFFF57
:10398000FFFFFFFF801FFFFFFFFFFFFFFFFFFFFFA6
:10399000FFFFFFFFFFFFFFFFFFFFFFFFFFFFFFFF37
:1039A000FFFF801FFFFFFFFFFFFFFFFFFFFFFFFF86
:1039B000FFFFFFFFFFFFFFFFFFFFFFFFFFFFFFFF17
:1039C000801FFFFFFFFFFFFFFFFFFFFFFFFFFFFF66
:1039D000FFFFFFFFFFFFFFFFFFFFFFFFFFFF000FE6
:1039E000FFFFFFFFFFFFFFFFFFFFFFFFFFFFFFFFE7
:1039F000FFFFFFFFFFFFFFFFFFFFFFFF060FFFFFC0
:103A0000FFFFFFFFFFFFFFFFFFFFFFFFFFFFFFFFC6
:103A1000FFFFFFFFFFFFFFFFFFFF060FFFFFFFFF9F
:103A2000FFFFFFFFFFFFFFFFFFFFFFFFFFFFFFFFA6
:103A3000FFFFFFFFFFFFFFFF060FFFFFFFFFFFFF7F
:103A4000FFFFFFFFFFFFFFFFFFFFFFFFFFFFFFFF86
:103A5000FFFFFFFFFFFE0707FFFFFFFFFFFFFFFF67
:103A6000FFFFFFFFFFFFFFFFFFFFFFFFFFFFFFFF66
:103A7000FFFFFFFE0F07FFFFFFFFFFFFFFFFFFFF3F
:103A8000FFFFFFFFFFFFFFFFFFFFFFFFFFFFFFFF46
:103A9000FFFE0F07FFFFFFFFFFFFFFFFFFFFFFFF1F
:103AA000FFFFFFFFFFFFFFFFFFFFFFFFFFFFFFFE27
:103AB0000F07FFFFFFFFFFFFFFFFFFFFFFFFFFFFFE
:103AC000FFFFFFFFFFFFFFFFFFFFFFFFFFFC0F8375
:103AD000FFFFFFFFFFFFFFFFFFFFFFFFFFFFFFFFF6
:103AE000FFFFFFFFFFFFFFFFFFFFFFFC1F83FFFF45
:103AF000FFFFFFFFFFFFFFFFFFFFFFFFFFFFFFFFD6
:103B0000FFFFFFFFFFFFFFFFFFFC1F83FFFFFFFF24
:103B1000FFFFFFFFFFFFFFFFFFFFFFFFFFFFFFFFB5
:103B2000FFFFFFFFFFFFFFFC1F83FFFFFFFFFFFF04
:103B3000FFFFFFFFFFFFFFFFFFFFFFFFFFFFFFFF95
:103B4000FFFFFFFFFFF81FC1FFFFFFFFFFFFFFFFAA
:103B5000FFFFFFFFFFFFFFFFFFFFFFFFFFFFFFFF75
:103B6000FFFFFFF83FC1FFFFFFFFFFFFFFFFFFFF6A
:103B7000FFFFFFFFFFFFFFFFFFFFFFFFFFFFFFFF55
:103B8000FFF83FC1FFFFFFFFFFFFFFFFFFFFFFFF4A
:103B9000FFFFFFFFFFFFFFFFFFFFFFFFFFFFFFF83C
:103BA0003FC1FFFFFFFFFFFFFFFFFFFFFFFFFFFF23
:103BB000FFFFFFFFFFFFFFFFFFFFFFFFFFF03FE003
:103BC000FFFFFFFFFFFFFFFFFFFFFFFFFFFFFFFF05
:103BD000FFFFFFFFFFFFFFFFFFFFFFF07FE0FFFFA3
:103BE000FFFFFFFFFFFFFFFFFFFFFFFFFFFFFFFFE5
:103BF000FFFFFFFFFFFFFFFFFFF07FE0FFFFFFFF83
:103C0000FFFFFFFFFFFFFFFFFFFFFFFFFFFFFFFFC4
:103C1000FFFFFFFFFFFFFFF07FE0FFFFFFFFFFFF62
:103C2000FFFFFFFFFFFFFFFFFFFFFFFFFFFFFFFFA4
:103C3000FFFFFFFFFFE07FF07FFFFFFFFFFFFFFFC2
:103C4000FFFFFFFFFFFFFFFFFFFFFFFFFFFFFFFF84
:103C500080000000FFF00000001FFFFFFFFFFFFFDC
:103C6000FFFFFFFFFFFFFFFFFFFFFFFFFFFF000062
:103C70000000FFF00000000FFFFFFFFFFFFFFFFF4E
:103C8000FFFFFFFFFFFFFFFFFFFFFFFE0000000041
:103C9000FFF000000007FFFFFFFFFFFFFFFFFFFF38
:103CA000FFFFFFFFFFFFFFFFFFFE00000001FFF827
:103CB00000000007FFFFFFFFFFFFFFFFFFFFFFFF09
:103CC000FFFFFFFFFFFFFFFF00000003FFFC0000FE
:103CD000000FFFFFFFFFFFFFFFFFFFFFFFFFFFFFE3
:103CE000FFFFFFFFFFFF80FFFFFFFFFFFFFFF00F62
:103CF000FFFFFFFFFFFFFFFFFFFFFFFFFFFFFFFFD4
:103D0000FFFFFFFFC07FFFFFFFFFFFFFE03FFFFF61
:103D1000FFFFFFFFFFFFFFFFFFFFFFFFFFFFFFFFB3
:103D2000FFFFE03FFFFFFFFFFFFFC07FFFFFFFFF41
:103D3000FFFFFFFFFFFFFFFFFFFFFFFFFFFFFFFF93
:103D4000F01FFFFFFFFFFFFF80FFFFFFFFFFFFFFF1
:103D5000FFFFFFFFFFFFFFFFFFFFFFFFFFFFF80F6A
:103D6000FFFFFFFFFFFF01FFFFFFFFFFFFFFFFFF61
:103D7000FFFFFFFFFFFFFFFFFFFFFFFFFC07FFFF4E
:103D8000FFFFFFFE03FFFFFFFFFFFFFFFFFFFFFF40
:103D9000FFFFFFFFFFFFFFFFFFFFFE03FFFFFFFF30
:103DA000FFFC07FFFFFFFFFFFFFFFFFFFFFFFFFF1E
:103DB000FFFFFFFFFFFFFFFFFF01FFFFFFFFFFF818
:103DC0000FFFFFFFFFFFFFFFFFFFFFFFFFFFFFFFF3
:103DD000FFFFFFFFFFFFFF80FFFFFFFFFFF01FFF61
:103DE000FFFFFFFFFFFFFFFFFFFFFFFFFFFFFFFFE3
:103DF000FFFFFFFFFFC07FFFFFFFFFE03FFFFFFF71
:103E0000FFFFFFFFFFFFFFFFFFFFFFFFFFFFFFFFC2
:103E1000FFFFFFE03FFFFFFFFFC07FFFFFFFFFFF50
:103E2000FFFFFFFFFFFFFFFFFFFFFFFFFFFFFFFFA2
:103E3000FFF01FFFFFFFFF80FFFFFFFFFFFFFFFF00
:103E4000FFFFFFFFFFFFFFFFFFFFFFFFFFFFFFF889
:103E50000FFFFFFFFF01FFFFFFFFFFF803FFFFFF63
:103E6000CFFFFFFFFFFFFFFFFFFFFFFFFFFC07FF8D
:103E7000FFFFFE03FFFFFFFFFFF803FFFFFF87FFCA
:103E8000FFFFFFFFFFFFFFFFFFFFFFFE03FFFFFF3F
:103E9000FC07FFFFFFFFFFF8E3FFFFFF03FFFFFF4C
:103EA000FFFFFFFFFFFFFFFFFFFF01FFFFFFF80F17
:103EB000FFFFFFFFFFF8E3FFFFFF03FFFFFFFFFF31
:103EC000FFFFFFFFFFFFFFFF807FFFFFF01FFFFFF0
:103ED000FFFFFFF8E3FFFFFF03FFFFFFFFFFFFFF11
:103EE000FFFFFFFFFFFFC07FFFFFE03FFFFFFFFF80
:103EF000FFF803FFFFFF03FFFFFFFFFFFFFFFFFFD1
:103F0000FFFFFFFFE03FFFFFC07FFFFFFFFFFFF866
:103F100003FFFFFE01FFFFFFFFFFFFFFFFFFFFFFAC
:103F2000FFFFF03FFFFFC0FFFFFFFFFFFFFFFFFFAF
:103F3000FFFE01FFFFFFFFFFFFFFFFFFFFFFFFFF90
:103F4000F83FFFFFC0FFFFFFFFFFFFFFFFFFFFFE88
:103F500001FFFFFFFFFFFFFFFFFFFFFFFFFFF07FFE
:103F6000FFFFE0FFFFFFFFFFFFFFFFFFFFFE01FF7F
:103F7000FFFFFFFFFFFFFFFFFFFFFFFFF07FFFFFE0
:103F8000E0FFFFFFFFFFFFFFFFFFFFFC00FFFFFF62
:103F9000FFFFFFFFFFFFFFFFFFFFF07FFFFFE0FFDF
:103FA000FFFFFFFFFFFFFFFFFFFC00FFFFFFFFFF23
:103FB000FFFFFFFFFFFFFFFFF07FFFFFE0FFFFFFBF
:103FC000FFFFFFFFFFFFFFFC00FFFFFFFFFFFFFF03
:103FD000FFFFFFFFFFFFE0FFFFFFF07FFFFFFFFF9F
:103FE000FFFFFFFFFFFC00FFFFFFFFFFFFFFFFFFE3
:103FF000FFFFFFFFE0FFFFFFF07FFFFFFFFFFFFF7F
:10400000FFFFFFF8007FFFFFFFFFFFFFFFFFFFFF46
:10401000FFFFE0FFFFFFF07FFFFFFFFFFFFFFFFF5E
:10402000FFF8307FFFFFFFFFFFFFFFFFFFFFFFFFF6
:10403000E0FFFFFFF07FFFFFFFFFFFFFFFFFFFF845
:10404000307FFFFFFFFFFFFFFFFFFFFFFFFFC0FF0E
:10405000FFFFF83FFFFFFFFFFFFFFFFFFFF8307F8D
:10406000FFFFFFFFFFFFFFFFFFFFFFFFC1FFFFFF9E
:10407000F83FFFFFFFFFFFFFFFFFFFF0383FFFFFAD
:10408000FFFFFFFFFFFFFFFFFFFFC1FFF9FFF83F4B
:10409000FFFFFFFFFFFFFFFFFFF0783FFFFFFFFF86
:1040A000FFFFFFFFFFFFFFFFC1FFE07FF83FFFFFC4
:1040B000FFFFFFFFFFFFFFF0783FFFFFFFFFFFFF66
:1040C000FFFFFFFFFFFF81FFC03FF81FFFFFFFFF64
:1040D000FFFFFFFFFFF0783FFFFFFFFFFFFFFFFF46
:1040E000FFFFFFFF83FF801FFC1FFFFFFFFFFFFF9E
:1040F000FFFFFFE07C1FFFFFFFFFFFFFFFFFFFFF52
:10410000FFFF83FF000FFC1FFFFFFFFFFFFFFFFF0D
:10411000FFE0FC1FFFFFFFFFFFFFFFFFFFFFFFFFB1
:1041200083FE0007FC1FFFFFFFFFFFFFFFFFFFE015
:10413000FC1FFFFFFFFFFFFFFFFFFFFFFFFF83FCF1
:104140000603FC0FFFFFFFFFFFFFFFFFFFE0FC1F69
:10415000FFFFFFFFFFFFFFFFFFFFFFFF07F80F015C
:10416000FE0FFFFFFFFFFFFFFFFFFFC0FE0FFFFF80
:10417000FFFFFFFFFFFFFFFFFFFF07E01F807E0F36
:10418000FFFFFFFFFFFFFFFFFFC1FE0FFFFFFFFF6E
:10419000FFFFFFFFFFFFFFFF07C03FC03E0FFFFF16
:1041A000FFFFFFFFFFFFFFC1FE0FFFFFFFFFFFFF4E
:1041B000FFFFFFFFFFFF07807FE01E0FFFFFFFFFF6
:1041C000FFFFFFFFFFC1FE0FFFFFFFFFFFFFFFFF2E
:1041D000FFFFFFFE0700FFF00F07FFFFFFFFFFFFDE
:1041E000FFFFFF81FF07FFFFFFFFFFFFFFFFFFFF55
:1041F000FFFE0E03FFFC0707FFFFFFFFFFFFFFFFB0
:10420000FF83FF07FFFFFFFFFFFFFFFFFFFFFFFE33
:104210000C07FFFE0307FFFFFFFFFFFFFFFFFF830A
:10422000FF07FFFFFFFFFFFFFFFFFFFFFFFE080F7E
:10423000FFFF0107FFFFFFFFFFFFFFFFFF83FF07F8
:10424000FFFFFFFFFFFFFFFFFFFFFFFC001FFFFF60
:104250008003FFFFFFFFFFFFFFFFFF03FF83FFFF61
:10426000FFFFFFFFFFFFFFFFFFFC003FFFFFC0035B
:10427000FFFFFFFFFFFC00000007FF80000000FFC2
:10428000FFFFFFFFFFFFFFFC007FFFFFE003FFFFDB
:10429000FFFFFFF800000007FF800000007FFFFF26
:1042A000FFFFFFFFFFFC00FFFFFFF003FFFFFFFF2B
:1042B000FFF000000007FF800000003FFFFFFFFF4E
:1042C000FFFFFFFC01FFFFFFF801FFFFFFFFFFF013
:1042D0000000000FFFC00000003FFFFFFFFFFFFFD7
:1042E000007807FFFFFFFE01FFFFFFFFFFF8000060
:1042F000001FFFE00000007FFFFFFFFFFFFF0078CF
:104300000FFFFFFFFF01FFFFFFFFFFFC07FFFFFFA6
:10431000FFFFFFFF807FFFFFFFFFFFFF1C781FFFF6
:10432000FFFFFF81FFFFFFFFFFFE03FFFFFFFFFF18
:10433000FFFF01FFFFFFFFFFFFFF1C783FFFFFFFB5
:10434000FFC1FFFFFFFFFFFF01FFFFFFFFFFFFFEBA
:1043500003FFFFFFFFFFFFFF1C7C7FFFFFFFFFE36B
:10436000FFFFFFFFFFFF80FFFFFFFFFFFFFC07FFD7
:10437000FFFFFFFFFFFF007FFFFFFFFFFFFFFFFFCC
:10438000FFFFFFFFC07FFFFFFFFFFFF80FFFFFFFF3
:10439000FFFFFFFF007FFFFFFFFFFFFFFFFFFFFFAC
:1043A000FFFFE03FFFFFFFFFFFF01FFFFFFFFFFFEB
:1043B000FFFFFFFFFFFFFFFFFFFFFFFFFFFFFFFF0D
:1043C000F01FFFFFFFFFFFE03FFFFFFFFFFFFFFFCB
:1043D000FFFFFFFFFFFFFFFFFFFFFFFFFFFFF80FE4
:1043E000FFFFFFFFFFC07FFFFFFFFFFFFFFFFFFF9C
:1043F000FFFFFFFFFFFFFFFFFFFFFFFFFC07FFFFC8
:10440000FFFFFF80FFFFFFFFFFFFFFFFFFFFFFFF3B
:10441000FFFFFFFFFFFFFFFFFFFFFE03FFFFFFFFA9
:10442000FF01FFFFFFFFFFFFFFFFFFFFFFFFFFFF9A
:10443000FFFFFFFFFFFFFFFFFF01FFFFFFFFFE0387
:10444000FFFFFFFFFFFFFFFFFFFFFFFFFFFFFFFF7C
:10445000FFFFFFFFFFFFFF80FFFFFFFFFC07FFFFE6
:10446000FFFFFFFFFFFFFFFFFFFFFFFFFFFFFFFF5C
:10447000FFFFFFFFFFC07FFFFFFFF80FFFFFFFFF02
:10448000FFFFFFFFFFFFFFFFFFFFFFFFFFFFFFFF3C
:10449000FFFFFFE03FFFFFFFF01FFFFFFFFFFFFFFA
:1044A000FFFFFFFFFFFFFFFFFFFFFFFFFFFFFFFF1C
:1044B000FFF01FFFFFFFE03FFFFFFFFFFFFFFFFFDA
:1044C000FFFFFFFFFFFFFFFFFFFFFFFFFFFFFFF803
:1044D0000FFFFFFFC07FFFFFFFFFFFFFFFFFFFFF9B
:1044E000FFFFFFFFFFFFFFFFFFFFFFFFFFFC03FFDB
:1044F000FFFF80FFFFFFFFFFFFFFFFFFFFFFFFFF4B
:10450000FFFFFFFFFFFFFFFFFFFFFFFE03FFFFFFB8
:1045100001FFFFFFFFFFFFFFFFFFFFFFFFFFFFFFA9
:10452000FFFFFFFFFFFFFFFFFFFF01FFFFFE03FF96
:10453000FFFFFFFFFFFFFFFFFFFFFFFFFFFFFFFF8B
:10454000FFFFFFFFFFFFFFFF81FFFFFE07FFFFFFF2
:10455000FFFFFFFFFFFFFFFFFFFFFFFFFFFFFFFF6B
:10456000FFFFFFFFFFFFC1FFFFFE07FFFFFFFFFF92
:10457000FFFFFFFFFFFFFFFFFFFFFFFFFFFFFFFF4B
:10458000FFFFFFFF83FFFFFF07FFFFFFFFFFFFFFAF
:10459000FFFFFFFFFFFFFFFFFFFFFFFFFFFFFFFF2B
:1045A000FFFF83FFFFFF07FFFFFFFFFFFFFFFFFF8F
:1045B000FFFFFFFFFFFFFFFFFFFFFFFFFFFFFFFF0B
:1045C00083FFFFFF07FFFFFFFFFFFFFFFFFFFFFF6F
:1045D000FFFFFFFFFFFFFFFFFFFFFFFFFFFF83FF67
:1045E000FFFF07FFFFFFFFFFFFFFFFFFFFFFFFFFD3
:1045F000FFFFFFFFFFFFFFFFFFFFFFFF07FFFFFFC3
:1046000083FFFFFFFFFFFFFFFFFFFFFFFFFFFFFF36
:10461000FFFFFFFFFFFFFFFFFFFF07FFFFFF83FF1E
:10462000FFFFFFFFFFFFFFFFFFFFFFFFFFFFFFFF9A
:10463000FFFFFFFFFFFFFFFF07FFFFFF83FFFFFFFE
:10464000FFFFFFFFFFFFFFFFFFFFFFFFFFFFFFFF7A
:10465000FFFFFFFFFFFF07FFFFFF83FFFFFFFFFFDE
:10466000FFFFFFFFFFFFFFFFFFFFFFFFFFFFFFFF5A
:10467000FFFFFFFE07FFFFFFC1FFFFFFFFFFFFFF81
:10468000FFFFFFFFFFFFFFFFFFFFFFFFFFFFFFFF3A
:10469000FFFE0FFFFFFFC1FFFFFFFFFFFFFFFFFF59
:1046A000FFFFFFFFFFFFFFFFFFFFFFFFFFFFFFFE1B
:1046B0000FFFCFFFC1FFFFFFFFFFFFFFFFFFFFFF68
:1046C000FFFFFFFFFFFFFFFFFFFFFFFFFFFE0FFFEB
:1046D00003FFC1FFFFFFFFFFFFFFFFFFFFFFFFFF24
:1046E000FFFFFFFFFFFFFFFFFFFFFFFC0FFE01FFCC
:1046F000C0FFFFFFFFFFFFFFFFFFFFFFFFFFFFFF09
:10470000FFFFFFFFFFFFFFFFFFFC1FFC00FFE0FFBD
:10471000FFFFFFFFFFFFFFFFFFFFFFFFFFFFFFFFA9
:10472000FFFFFFFFFFFFFFFC1FF8007FE0FFFFFF21
:10473000FFFFFFFFFFFFFFFFFFFFFFFFFFFFFFFF89
:10474000FFFFFFFFFFFC1FF0003FE0FFFFFFFFFF49
:10475000FFFFFFFFFFFFFFFFFFFFFFFFFFFFFFFF69
:10476000FFFFFFFC1FE0301FE07FFFFFFFFFFFFFA9
:10477000FFFFFFFFFFFFFFFFFFFFFFFFFFFFFFFF49
:10478000FFF83FC0780FF07FFFFFFFFFFFFFFFFF45
:10479000FFFFFFFFFFFFFFFFFFFFFFFFFFFFFFF830
:1047A0003F00FC03F07FFFFFFFFFFFFFFFFFFFFF66
:1047B000FFFFFFFFFFFFFFFFFFFFFFFFFFF83E01CF
:1047C000FE01F07FFFFFFFFFFFFFFFFFFFFFFFFF87
:1047D000FFFFFFFFFFFFFFFFFFFFFFF83C03FF00AE
:1047E000F07FFFFFFFFFFFFFFFFFFFFFFFFFFFFF68
:1047F000FFFFFFFFFFFFFFFFFFF03807FF80783F5D
:10480000FFFFFFFFFFFFFFFFFFFFFFFFFFFFFFFFB8
:10481000FFFFFFFFFFFFFFF0701FFFE0383FFFFFCC
:10482000FFFFFFFFFFFFFFFFFFFFFFFFFFFFFFFF98
:10483000FFFFFFFFFFF0603FFFF0183FFFFFFFFFAC
:10484000FFFFFFFFFFFFFFFFFFFFFFFFFFFFFFFF78
:10485000FFFFFFF0407FFFF8083FFFFFFFFFFFFF74
:10486000FFFFFFFFFFFFFFFFFFFFFFFFFFFFFFFF58
:10487000FFE000FFFFFC001FFFFFFFFFFFFFFFFF48
:10488000FFFFFFFFFFFFFFFFFFFFFFFFFFFFFFE057
:1048900001FFFFFE001FFFFFFFFFFFFFFFFFFFFF06
:1048A000FFFFFFFFFFFFFFFFFFFFFFFFFFE003FF33
:1048B000FFFF001FFFFFFFFFFFFFFFFFFFFFFFFFE7
:1048C000FFFFFFFFFFFFFFFFFFFFFFE007FFFFFF0F
:1048D000801FFFFFFFFFFFFFFFFFFFFFFFFFFFFF47
:1048E000FFFFFFFFFFFFFFFFFFE00FFFFFFFC00F16
:1048F000FFFFFFFFFFFFFFFFFFFFFFFFFFFFFFFFC8
:10490000FFFFFFFFFFFFFFC03FFFFFFFF00F007F34
:10491000FFFFFFFFFFFFFFFFFFFFFFFFFFFFFFFFA7
:10492000FFFFFFFFFFC07FFFFFFFF80F007FFFFFCC
:10493000FFFFFFFFFFFFFFFFFFFFFFFFFFFFFFFF87
:10494000FFFFFFC0FFFFFFFFFC0F1C7FFFFFFFFF0C
:10495000FFFFFFFFFFFFFFFFFFFFFFFFFFFFFFFF67
:10496000FFC1FFFFFFFFFE0F1C7FFFFFFFFFFFFFE9
:10497000FFFFFFFFFFFFFFFFFFFFFFFFFFFFFFE363
:10498000FFFFFFFFFF1F1C7FFFFFFFFFFFFFFFFF7A
:10499000FFFFFFFFFFFFFFFFFFFFFFFFFFFFFFFF27
:1049A000FFFFFFFF007FFFFFFFFFFFFFFFFFFFFF96
:1049B000FFFFFFFFFFFFFFFFFFFFFFFFFFFFFFFF07
:1049C000FFFF007FFFFFFFFFFFFFFFFFFFFFFFFF76
:1049D000FFFFFFFFFFFFFFFFFFFFFFFFFFFFFFFFE7
:1049E000FFFFFFFFFFFFFFFFFFFFFFFFFFFFFFFFD7
:1049F000FFFFFFFFFFFFFFFFFFFFFFFFFFFFFFFFC7
:104A0000FFFFFFFFFFFFFFFFFFFFFFFFFFFFFFFFB6
:104CF000FFF80000000000001FFF0000000000009F
:104D00000000000000000000000000000000FFF8AC
:104D10000000000000001FFF000000000000000075
:104D2000000000000000000000000000FFF800008C
:104D3000000000001FFF0000000000000000000055
:104D400000000000000000000000C018000000008B
:104D50000000180300000000000000000000000038
:104D60000000000000000000C0180000000000006B
:104D70001803000000000000000000000000000018
:104D8000000000000000C018000000000000180330
:104D90000000000000000000000000000000000013
:104DA00000000000C0180000000000001803000010
:104DB00000000000000000000000000000000000F3
:104DC0000000C018000000000000180300000000F0
:104DD00000000000000000000000000000000000D3
:104DE000C0180000000000001803000000000000D0
:104DF0000000000000000000000000000000C018DB
:104E00000000000000001803000000000000000087
:104E1000000000000000000000000000FFF800009B
:104E2000000000001FFF0000000000000000000064
:104E300000000000000000000000FFF8000000007B
:104E400000001FFF00000000000000000000000044
:104E50000000000000000000FFF80000000000005B
:104E60001FFF000000000000000000000000000024
:104E70000000000000000000000000000000000032
:104E80000000000000000000000000000000000022
:104E90000000000000000000000000000000000012
:104EA0000000000000000000000000000000000002
:104EB00000000000000000000000000000000000F2
:104EC00000000000000000000000000000000000E2
:104ED00000000000000000000000000000000000D2
:104EE00000000000000000000000000000000000C2
:104EF00000000000000000000000000000000000B2
:104F000000000000000000000000000000000000A1
:104F10000000000000000000000000000000000091
:104F20000000000000000000000000000000000081
:104F30000000000000000000000000000000000071
:104F40000000000000000000000000000000000061
:104F50000000000000000000000000000000000051
:104F60000000000000000000000000000000000041
:104F70000000000000000000000000000000000031
:104F80000000000000000000000000000000000021
:104F90000000000000000000000000000000000011
:104FA0000000000000000000000000000000000001
:104FB00000000000000000000000000000000000F1
:104FC00000000000000000000000000000000000E1
:104FD00000000000000000000000000000000000D1
:104FE00000000000000000000000000000000000C1
:104FF00000000000000000000000000000000000B1
:1050000000000000000000000000000000000000A0
:105010000000000000000000000000000000000090
:105020000000000000000000000000000000000080
:105030000000000000000000000000000000000070
:105040000000000000000000000000000000000060
:105050000000000000000000000000000000000050
:105060000000000000000000000000000000000040
:1050700000000000000000000180000000000000AF
:105080000000000000000000000000000000000020
:1050900000000000000003C000000000000000004D
:1050A0000000000000000000000000000000000000
:1050B0000000000007E00000000000000000000009
:1050C00000000000000000000000000000000000E0
:1050D000000007E0000000000000000000000000E9
:1050E00000000000000000000000000000000000C0
:1050F00007E00000000000000000000000000000C9
:10510000000000000000000000000000000007E0B8
:10511000000000000000000000000000000000008F
:105120000000000000000000000000000FF0000080
:10513000000000000000000000000000000000006F
:10514000000000000000000000000FF00000000060
:10515000000000000000000000000000000000004F
:1051600000000000000000000FF000000000000040
:10517000000000000000000000000000000000002F
:105180000000000000000FF0000000000000000020
:10519000000000000000000000000000000000000F
:1051A000000000001FF800000000000000000000E8
:1051B00000000000000000000000000000000000EF
:1051C00000001FF8000000000000000000000000C8
:1051D00000000000000000000000000000000000CF
:1051E0001FF80000000000000000000000000000A8
:1051F00000000000000000000000000000001FF898
:10520000000000000000000000000000000000009E
:105210000000000000000000000000003FFC000053
:10522000000000000000000000000000000000007E
:10523000000000000000000000003E7C00000000B4
:10524000000000000000000000000000000000005E
:1052500000000000000000003E7C00000000000094
:10526000000000000000000000000000000000003E
:105270000000000003FFFE7FFFC0000000000000F0
:10528000000000000000000000000000000000001E
:1052900000000FFFFE7FFFF0000000000000000094
:1052A00000000000000000000000000000000000FE
:1052B0000FFFFC3FFFF000000000000000000000B6
:1052C00000000000000000000000000000000FFFD0
:1052D000FC3FFFF0000000000000000000000000A4
:1052E00000000000000000000000000007FFF81FA1
:1052F000FFE00000000000000000000000000000CF
:105300000000000000000000000003F800001FC0C3
:10531000000000000000000000000000000000008D
:10532000000000000000000001FC00003F800000C1
:10533000000000000000000000000000000000006D
:1053400000000000000000FE00007F0000000000E0
:10535000000000000000000000000000000000004D
:1053600000000000007F0000FE00000000000000C0
:10537000000000000000000000000000000000002D
:105380000000003F8001FC00000000000000000061
:10539000000000000000000000000000000000000D
:1053A000001FC003F8000000000000000000000023
:1053B0000000000000000000000000000000000FDE
:1053C000E007F00000000000000000000000000006
:1053D0000000000000000000000000000007E007DF
:1053E000E0000000000000000000000000000000DD
:1053F000000000000000000000000003E007C00003
:10540000000000000000000000000000000000009C
:1054100000000000000000000003E007C0000000E2
:10542000000000000000000000000000000000007C
:105430000000000000000003E007C00000000000C2
:10544000000000000000000000000000000000005C
:10545000000000000003E007C000000000000000A2
:10546000000000000000000000000000000000003C
:1054700000000007C003E000000000000000000082
:10548000000000000000000000000000000000001C
:105490000007C3C3E000000000000000000000009F
:1054A00000000000000000000000000000000007F5
:1054B000C7E3E00000000000000000000000000062
:1054C0000000000000000000000000000007CFF313
:1054D000E0000000000000000000000000000000EC
:1054E00000000000000000000000000FFFFFF000BF
:1054F00000000000000000000000000000000000AC
:105500000000000000000000000FFFFFF00000009E
:10551000000000000000000000000000000000008B
:10552000000000000000000FFFFFF000000000007E
:10553000000000000000000000000000000000006B
:1055400000000000000FFE3FF0000000000000001F
:10555000000000000000000000000000000000004B
:105560000000000FF81FF80000000000000000001D
:10557000000000000000000000000000000000002B
:10558000001FF00FF8000000000000000000000005
:105590000000000000000000000000000000001FEC
:1055A000E007F8000000000000000000000000001C
:1055B000000000000000000000000000001FC00309
:1055C000F8000000000000000000000000000000E3
:1055D00000000000000000000000001F8001F80033
:1055E00000000000000000000000000000000000BB
:1055F0000000000000000000001F0000F800000094
:10560000000000000000000000000000000000009A
:10561000000000000000000E00007000000000000C
:10562000000000000000000000000000000000007A
:10563000000000000000000000000000000000006A
:10564000000000000000000000000000000000005A
:10565000000000000000000000000000000000004A
:10566000000000000000000000000000000000003A
:10567000000000000000000000000000000000002A
:10568000000000000000000000000000000000001A
:10569000000000000000000000000000000000000A
:1056A00000000000000000000000000000000000FA
:1056B00000000000000000000000000000000000EA
:1056C00000000000000000000000000000000000DA
:1056D00000000000000000000000000000000000CA
:1056E00000000000000000000000000000000000BA
:1056F00000000000000000000000000000000000AA
:105700000000000000000000000000000000000099
:105710000000000000000000000000000000000089
:105720000000000000000000000000000000000079
:105730000000000000000000000000000000000069
:105740000000000000000000000000000000000059
:105750000000000000000000000000000000000049
:105760000000000000000000000000000000000039
:105770000000000000000000000000000000000029
:105780000000000000000000000000000000000019
:1057900000000003FFE000000000FFF80000000030
:1057A00000000000000000000000000000000000F9
:1057B0000003FFE000000000FFF800000000000010
:1057C00000000000000000000000000000000003D6
:1057D000FFE000000000FFF80000000000000000F3
:1057E0000000000000000000000000000003006056
:1057F00000000000C01800000000000000000000D1
:105800000000000000000000000000030060000035
:105810000000C018000000000000000000000000B0
:105820000000000000000000000300600000000015
:10583000C018000000000000000000000000000090
:105840000000000000000003006000000000C0181D
:105850000000000000000000000000000000000048
:10586000000000000003006000000000C0180000FD
:105870000000000000000000000000000000000028
:1058800000000003006000000000C01800000000DD
:105890000000000000000000000000000000000008
:1058A0000003006000000000C018000000000000BD
:1058B00000000000000000000000000000000003E5
:1058C000FFE000000000FFF8000000000000000002
:1058D0000000000000000000000000000003FFE0E6
:1058E00000000000FFF800000000000000000000C1
:1058F000000000000000000000000003FFE00000C6
:105900000000FFF8000000000000000000000000A0
:105910000000000000000000000000000000000087
:105920000000000000000000000000000000000077
:105930000000000000000000000000000000000067
:105940000000000000000000000000000000000057
:105950000000000000000000000000000000000047
:105960000000000000000000000000000000000037
:105970000000000000000000000000000000000027
:105980000000000000000000000000000000000017
:105990000000000000000000000000000000000007
:1059A00000000000000000000000000000000000F7
:1059B00000000000000000000000000000000000E7
:1059C00000000000000000000000000000000000D7
:1059D00000000000000000000000000000000000C7
:1059E00000000000000000000000000000000000B7
:1059F00000000000000000000000000000000000A7
:105A00000000000000000000000000000000000096
:105A10000000000000000000000000000000000086
:105A20000000000000000000000000000000000076
:105A30000000000000000000000000000000000066
:105A40000000000000000000000000000000000056
:105A50000000000000000000000000000000000046
:105A60000000000000000000000000000000000036
:105A70000000000000000000000000000000000026
:105A80000000000000000000000000000000000016
:105A90000000000000000000000000000000000006
:105AA00000000000000000000000000000000000F6
:105AB00000000000000000000000000000000000E6
:105AC00000000000000000000000000000000000D6
:105AD00000000000000000000000000000000000C6
:105AE00000000000000000000000000000000000B6
:105AF00000000000000000000000000000000000A6
:105B00000000000000000000000000000000000095
:105B10000000000030000000000000000000000055
:105B20000000000000000000000000000000000075
:105B300000007800000000000000000000000000ED
:105B40000000000000000000000000000000000055
:105B5000FC00000000000000000000000000000049
:105B60000000000000000000000000000000FC0039
:105B70000000000000000000000000000000000025
:105B8000000000000000000000000000FC00000019
:105B90000000000000000000000000000000000005
:105BA00000000000000000000000FC0000000000F9
:105BB00000000000000000000000000000000000E5
:105BC0000000000000000001FE00000000000000D6
:105BD00000000000000000000000000000000000C5
:105BE000000000000001FE000000000000000000B6
:105BF00000000000000000000000000000000000A5
:105C000000000001FE000000000000000000000095
:105C10000000000000000000000000000000000084
:105C20000001FE0000000000000000000000000075
:105C30000000000000000000000000000000000361
:105C4000FF00000000000000000000000000000055
:105C50000000000000000000000000000003FF0042
:105C60000000000000000000000000000000000034
:105C7000000000000000000000000003FF00000022
:105C80000000000000000000000000000000000014
:105C900000000000000000000003FF000000000002
:105CA00000000000000000000000000000000000F4
:105CB0000000000000000007FF800000000000005E
:105CC00000000000000000000000000000000000D4
:105CD000000000000007CF8000000000000000006E
:105CE00000000000000000000000000000000000B4
:105CF00000000007CF80000000000000000000004E
:105D00000000000000000000000000000000000093
:105D10007FFFCFFFF800000000000000000000003F
:105D20000000000000000000000000000001FFFF74
:105D3000CFFFFE0000000000000000000000000097
:105D4000000000000000000000000001FFFF87FFCE
:105D5000FE00000000000000000000000000000045
:105D600000000000000000000001FFFF87FFFE00B0
:105D70000000000000000000000000000000000023
:105D80000000000000000000FFFF03FFFC00000017
:105D90000000000000000000000000000000000003
:105DA0000000000000007F000003F8000000000079
:105DB00000000000000000000000000000000000E3
:105DC000000000003F800007F0000000000000001D
:105DD00000000000000000000000000000000000C3
:105DE00000001FC0000FE0000000000000000000E5
:105DF00000000000000000000000000000000000A3
:105E00000FE0001FC00000000000000000000000C4
:105E1000000000000000000000000000000007F08B
:105E2000003F8000000000000000000000000000B3
:105E300000000000000000000000000003F8007FE8
:105E40000000000000000000000000000000000052
:105E50000000000000000000000001FC00FE000047
:105E60000000000000000000000000000000000032
:105E7000000000000000000000FC00FC000000002A
:105E80000000000000000000000000000000000012
:105E9000000000000000007C00F80000000000008E
:105EA00000000000000000000000000000000000F2
:105EB00000000000007C00F800000000000000006E
:105EC00000000000000000000000000000000000D2
:105ED0000000007C00F8000000000000000000004E
:105EE00000000000000000000000000000000000B2
:105EF000007C00F80000000000000000000000002E
:105F0000000000000000000000000000000000F899
:105F1000007C000000000000000000000000000005
:105F200000000000000000000000000000F8787C85
:105F30000000000000000000000000000000000061
:105F40000000000000000000000000F8FC7C0000E1
:105F50000000000000000000000000000000000041
:105F6000000000000000000000F9FE7C00000000BE
:105F70000000000000000000000000000000000021
:105F800000000000000001FFFFFE00000000000014
:105F90000000000000000000000000000000000001
:105FA0000000000001FFFFFE0000000000000000F4
:105FB00000000000000000000000000000000000E1
:105FC000000001FFFFFE00000000000000000000D4
:105FD00000000000000000000000000000000000C1
:105FE00001FFC7FE000000000000000000000000EC
:105FF000000000000000000000000000000001FFA1
:1060000003FF00000000000000000000000000008E
:1060100000000000000000000000000003FE01FF7F
:106020000000000000000000000000000000000070
:106030000000000000000000000003FC00FF000062
:106040000000000000000000000000000000000050
:10605000000000000000000003F8007F00000000C6
:106060000000000000000000000000000000000030
:1060700000000000000003F0003F000000000000EE
:106080000000000000000000000000000000000010
:106090000000000003E0001F0000000000000000FE
:1060A00000000000000000000000000000000000F0
:1060B000000001C0000E0000000000000000000011
:1060C00000000000000000000000000000000000D0
:1060D00000000000000000000000000000000000C0
:1060E00000000000000000000000000000000000B0
:1060F00000000000000000000000000000000000A0
:10610000000000000000000000000000000000008F
:10611000000000000000000000000000000000007F
:10612000000000000000000000000000000000006F
:10613000000000000000000000000000000000005F
:10614000000000000000000000000000000000004F
:10615000000000000000000000000000000000003F
:10616000000000000000000000000000000000002F
:10617000000000000000000000000000000000001F
:10618000000000000000000000000000000000000F
:1061900000000000000000000000000000000000FF
:1061A00000000000000000000000000000000000EF
:1061B00000000000000000000000000000000000DF
:1061C00000000000000000000000000000000000CF
:1061D00000000000000000000000000000000000BF
:1061E00000000000000000000000000000000000AF
:1061F000000000000000000000000000000000009F
:10620000000000000000000000000000000000008E
:10621000000000000000000000000000000000007E
:10622000000000000000000000000000000000006E
:1062300000000000001FFF00000000000003FFE05E
:10624000000000000000000000000000000000004E
:106250000000001FFF00000000000003FFE000003E
:10626000000000000000000000000000000000002E
:10627000001FFF00000000000003FFE0000000001E
:1062800000000000000000000000000000000018F6
:106290000300000000000003006000000000000098
:1062A00000000000000000000000000000180300D3
:1062B000000000000003006000000000000000007B
:1062C00000000000000000000000001803000000B3
:1062D000000000030060000000000000000000005B
:1062E0000000000000000000001803000000000093
:1062F000000300600000000000000000000000003B
:10630000000000000000001803000000000000036F
:10631000006000000000000000000000000000001D
